:02000004080AE8
:1000000000000A0868110A08000005000600050142
:080010000402EA0300000000F5
:10001800540E0A0809480A4908B5884205D0094A11
:10002800824202D0121A00F0CDFE0748074A00218A
:10003800121A00F0D2FE064808BD00BF00030020D7
:10004800D4100A086C0300206C030020F00800207C
:10005800F008002070B500F0D3FA074B074C1E4695
:10006800E41AA4080025A54204D056F8253098477C
:100078000135F8E770BD00BF94100A08C4100A08DB
:1000880000F012B808B500F021F8BDE8084000F00B
:1000980079BA00F075B90078B0FA80F04009704775
:1000A800012303707047000008B5064B012118882A
:1000B80000F0A8FC044B01211888BDE8084000F0B6
:1000C800A1BC00BF700300200003002038B50E4D0E
:1000D8000E4C2888012100F0A6FC0121208800F0A0
:1000E800A2FC4FF47A7000F0FBF92888002100F098
:1000F8009AFC2088002100F096FCBDE838404FF4B7
:100108007A7000F0EDB900BF7003002000030020F2
:1001180000F000B808B5024B1B681B68019308BDC6
:10012800B001060808B5024B1B689B68019308BD1F
:10013800B001060808B5024B1B68DB68019308BDCF
:10014800B001060808B5024B1B681B69019308BD7E
:10015800B001060808B5024B1B68DB69019308BDAE
:10016800B401060808B5024B1B681B6A019308BD59
:10017800B401060808B5024B1B685B68019308BD0B
:100188009C01060808B5024B1B685B69019308BD12
:100198009C01060808B5024B1B68DB6E019308BD7D
:1001A800B801060808B5024B1B681B6B019308BD14
:1001B800D001060808B5024B1B689B69019308BD6E
:1001C800C401060808B5024B1B685B6A019308BDA9
:1001D800C401060808B5024B1B689B6A019308BD59
:1001E800C401060808B5024B1B68DB6A019308BD09
:1001F800C401060808B5024B1B681B6B019308BDB8
:10020800C401060808B5024B1B685B6B019308BD67
:10021800C401060808B5024B1B689B6B019308BD17
:10022800C401060808B5024B1B681B6C019308BD86
:10023800C401060808B5024B1B681B6E019308BD74
:10024800AC01060808B5024B1B685B6E019308BD3C
:10025800AC01060808B5024B1B689B6E019308BDEC
:10026800AC01060808B5024B1B68DB6E019308BD9C
:10027800AC01060808B5024B1B681B6F019308BD4B
:10028800AC01060808B5024B1B685B6F019308BDFB
:10029800AC01060808B5034B1B68D3F880300193FE
:1002A80008BD0000AC01060808B5024B1B681B68B6
:1002B800019308BDD801060808B5024B1B681B69E5
:1002C800019308BDD801060808B5024B1B685B6995
:1002D800019308BDD801060808B5024B1B689B6945
:1002E800019308BDD801060808B5024B1B68DB69F5
:1002F800019308BDD801060808B5024B1B681B6AA4
:10030800019308BDD801060808B5024B1B685B6855
:10031800019308BDA401060808B5024B1B685B6978
:10032800019308BDA401060808B5034B1B68D3F860
:100338009030019308BD0000A401060808B5034BDE
:100348001B68D3F89C30019308BD0000A40106087F
:1003580008B5024B1B681B69019308BDC801060854
:1003680008B5024B1B68DB6B019308BDCC0106087E
:1003780008B5024B1B681B68019308BDA00106085D
:1003880008B5024B1B685B68019308BDA00106080D
:10039800704710B50446FFF77CFE204610BD0000EC
:1003A80070B504460E46074B0025036040F80C5F05
:1003B800FFF7F8FE30462671FFF7CCFEA560204611
:1003C80070BD00BF700E0A080079FFF7CBBE0000B1
:1003D8004FF69C7337B50D4C002563804FF6FF73BD
:1003E8002846A3802570FFF78FFF02A840F8045D18
:1003F8002A462946FFF7CEFE019B1E2B04D1032374
:10040800237011236580A38003B030BD74030020DE
:10041800F8B506460D468F180024BD420CD0336847
:1004280015F8011B9B6830469847002801DB0444F7
:10043800F3E7002C08BF04462046F8BD70B5054612
:100448000C46084649B100F0F9FC2B6802462146E3
:100458002846BDE87040DB68184770BD03689B6894
:100468001847012A98BF0A2230B50B468BB00021E5
:100478008DF824100DF12304B3FBF2F505FB1233BC
:10048800DBB2092B94BF30333733DBB2214604F893
:1004980001392B46002DEFD1FFF7D0FF0BB030BD4F
:1004A80010B422B90368C9B29B6810BC1847D2B20D
:1004B80010BCFFF7D6BFFFF7F3BF0000014A024B9D
:1004C8001A607047330F0A087C030020024B1A6831
:1004D800024B1A60704700BF04030020800300200D
:1004E8000021FFF719BF10B58368044613B1032232
:1004F80001469847204610BD10B50446FFF7F3FFA4
:10050800204610BD034800238360034A034900F0D6
:10051800FDBA00BF840300206C03002001050A080F
:1005280008B5144B33B100F025F903681B699847E7
:10053800002816DC104B33B100F0C2F903681B69C0
:100548009847002810DC0D4B0BB1AFF300800C4B23
:100558007BB100F04BF903681B699847002806DC5B
:1005680008BDAFF30080E5E7AFF30080EBE7AFF33A
:10057800008008BD0000000000000000000000002E
:100588000000000008B5FFF7CBFFFFF7FBFD014BAC
:10059800186008BD1C0800200248034A0349121AC3
:1005A80000F010BC0040024004400240D0100A088D
:1005B80007B5002300931A466FF07701FFF7BEFED8
:1005C80003B05DF804FB000007B543880A2B08D088
:1005D800502B09D1094B1B683BB103B05DF804EB04
:1005E8001847FFF7E5FF06E0002300931A466FF06F
:1005F8007701FFF7A3FE03B05DF804FB9403002026
:1006080038B5104C104D2368AB42104B0CBF01227B
:1006180000221A7002D0FFF7BFFF2560FFF7AAFD7E
:1006280000F0E4FB0A4B1BB1FFF7A4FDAFF3008019
:1006380000210748FFF794FEBDE83840002105482F
:10064800FFF772BE004002401E1C279A9803002044
:1006580000000000D1050A08704710B50446FFF7EE
:1006680018FD204610BDF8B50F4600F10806051D17
:10067800002416F8011D0A223846FFF71CFFAE4277
:10068800044407D0002CF4D02E213846FFF7E6FEAC
:100698000444EEE72046F8BD10B59DF8084044EA4A
:1006A800032343EA024242EA0161042341600375DD
:1006B80010BD000037B5044D05609DF81850009531
:1006C800FFF7EAFF03B030BD900F0A084174704786
:1006D80070470021007CFFF7FFBD0121007CFFF778
:1006E800FBBD007CFFF7F0BD007CFFF7E5BD38B52A
:1006F8000446007C0D46FFF7E7FD002801DC607C1E
:1007080020B12946207CFFF7EFFD012038BD007C91
:10071800FFF7F2BD10B50446FFF7BBFC204610BD3D
:1007280010B50446002363604FF47A73A360054B49
:10073800084623600123217463741146FFF7B4FD52
:10074800204610BDA40F0A0810B504461422002143
:1007580000F043FB054B20466360054BE36040F225
:10076800011323818123238210BD00BF21040020AF
:10077800A003002030B50E4D87B001A8FFF7E4FFB5
:10078800296811F0010410D12846FFF784FC60B1F4
:1007980001AA21460748FFF7C3FF2846FFF780FC58
:1007A800054A0649034800F0B1F9024807B030BDD0
:1007B8009C030020240500206C030020D9060A08A9
:1007C80010B504461422002100F007FB054B204613
:1007D8006360054BE36040F2011323818123238288
:1007E80010BD00BFD40500203C05002010B50E4CFC
:1007F80086B001A8FFF7E4FF2368DB0710D4204682
:10080800FFF749FC60B101AA01210848FFF788FFFA
:100818002046FFF745FC064A0649044800F076F9E9
:10082800024806B010BD00BF38050020C0050020F2
:100838006C030020D9060A08704741747047007C91
:10084800FFF7F0BC007CFFF7C5BC007CFFF7D2BC0B
:10085800007CFFF7C7BC007CFFF7D4BC10B504468A
:10086800FFF717FC204610BD70B5457C04460E46C0
:1008780025B9007CFFF7D6FC002805DD3146207C31
:10088800BDE87040FFF79EBC284670BD10B5044611
:1008980008461146002262604FF47A72A260054A47
:1008A80020742260012262741A46FFF783FC2046F6
:1008B80010BD00BFD40F0A08007CFFF7ABBC0000D6
:1008C80038B50C4D296811F0010411D12846FFF7FD
:1008D800E2FB68B1084A2146084B0948FFF7D6FFF2
:1008E8002846FFF7DDFB074A0749054800F00EF9DF
:1008F800034838BD7007002074070020EC0600206C
:10090800D80600206C03002041080A087047F8B593
:10091800064615460C468F18BC4206D0336814F8B4
:10092800011B9B6830469847F6E72846F8BD002229
:10093800007CFFF77FBC0021007CFFF783BC00210F
:10094800007CFFF787BC0021007CFFF78BBC0021EF
:10095800007CFFF78FBC10B50446FFF79AFB2046D2
:1009680010BD000010B5044608464FF47A73A36022
:10097800044B0021207461602360FFF78BFC204644
:1009880010BD00BF04100A080021007CFFF77ABCE4
:100998007047002211461046FFF7DABC0348044BA3
:1009A800044A0549036000F0B1B800BFF807002009
:1009B8002C100A086C03002099090A0810B504468F
:1009C8000F48FFF701FD28B1A4F10D03022B01D850
:1009D800002010BD00F07AF8FFF7D6FF08B1012C0F
:1009E800F6D9FFF76DFFFFF767FF18B1A4F11203FF
:1009F800012BEDD9172C8CBF0020012010BD00BFA2
:100A0800FC070020172838B504460D460AD8FF29E8
:100A180008D0FFF7D3FF28B129462046BDE8384063
:100A2800FFF780BB38BD38B504460D46FFF782FB9B
:100A3800FF2810D0062804D84D2323FA00F0C30756
:100A480009D42046FFF7BAFF28B129462046BDE859
:100A58003840FFF777BB38BD70B50C4C0C4E0D4DC8
:100A680000212046FFF79CFC20460B4C32462946C5
:100A780000F04CF801212046FFF792FC3246294647
:100A88002046BDE8704000F041B800BFFC070020D8
:100A98006C03002099030A080C08002013B5084CC1
:100AA80000231A46194600932046FFF703FE204606
:100AB800044A054902B0BDE8104000F027B800BF5D
:100AC800200800206C03002061060A0838B50B4D89
:100AD800296811F001040FD12846FFF7DCFA58B154
:100AE80021460748FFF73EFF2846FFF7D9FA054A8F
:100AF8000549034800F00AF8014838BD38080020C5
:100B08003C0800206C03002015090A080B46014622
:100B1800184600F049B90000184B1A68D1075CBFA5
:100B280001221A60164B1A68D2075CBF01221A60AC
:100B3800144B1A68D0075CBF01221A60124B1A685E
:100B4800D1075CBF01221A60104B1A68D2075CBF3C
:100B580001221A600E4B1A68D0075CBF01221A6086
:100B68000C4B1A68D1075CBF01221A600A4B1A683D
:100B7800D2075CBF01221A60704700BF6C080020D2
:100B88006808002064080020600800205C08002035
:100B9800580800205408002050080020244B1A68E8
:100BA800D0075CBF01221A60224B1A68D1075CBFCC
:100BB80001221A60204B1A68D2075CBF01221A6012
:100BC8001E4B1A68D0075CBF01221A601C4B1A68BA
:100BD800D1075CBF01221A601A4B1A68D2075CBFA2
:100BE80001221A60184B1A68D0075CBF01221A60EC
:100BF800164B1A68D1075CBF01221A60144B1A6899
:100C0800D2075CBF01221A60124B1A68D0075CBF7A
:100C180001221A60104B1A68D1075CBF01221A60C2
:100C28000E4B1A68D2075CBF01221A60704700BFDA
:100C38009C080020980800209408002090080020B4
:100C48008C080020880800208408002080080020E4
:100C58007C08002078080020740800207008002014
:100C6800244B1A68D0075CBF01221A60224B1A680D
:100C7800D1075CBF01221A60204B1A68D2075CBFFB
:100C880001221A601E4B1A68D0075CBF01221A6045
:100C98001C4B1A68D1075CBF01221A601A4B1A68EC
:100CA800D2075CBF01221A60184B1A68D0075CBFD4
:100CB80001221A60164B1A68D1075CBF01221A601C
:100CC800144B1A68D2075CBF01221A60124B1A68CB
:100CD800D0075CBF01221A60104B1A68D1075CBFAD
:100CE80001221A600E4B1A68D2075CBF01221A60F3
:100CF800704700BFCC080020C8080020C4080020A6
:100D0800C0080020BC080020B8080020B408002053
:100D1800B0080020AC080020A8080020A408002083
:100D2800A0080020184B1A68D1075CBF01221A607E
:100D3800164B1A68D2075CBF01221A60144B1A6856
:100D4800D0075CBF01221A60124B1A68D1075CBF3A
:100D580001221A60104B1A68D2075CBF01221A6080
:100D68000E4B1A68D0075CBF01221A600C4B1A6838
:100D7800D1075CBF01221A600A4B1A68D2075CBF10
:100D880001221A60704700BFEC080020E808002024
:100D9800E4080020E0080020DC080020D808002033
:100DA800D4080020D008002010B5054C13462CB1FB
:100DB8000A4601460220AFF3008010BD204610BD50
:100DC8000000000010B5431E0A44914204D011F8F7
:100DD800014B03F8014FF8E710BD03460244934264
:100DE80002D003F8011BFAE77047000038B5124B30
:100DF80005461C68A36BD3B91820FFF7B9FA43F26C
:100E08000E33A06303804AF6CD33438041F2342386
:100E180083804EF26D63C3804DF6EC630381052336
:100E280043810B23838101220023C0E90423A36BA0
:100E380000221D615A6138BD68030020034613F87B
:100E4800012B002AFBD1181A013870471D000A0827
:100E58005D000A0889000A088D000A0800000000E1
:100E6800000000000000000099030A089B030A081C
:100E780066006C6E00666E00636F6465006465747E
:100E880061696C000D0A00253031307520005D2045
:100E9800002564002C200028293A2000205B0063EC
:100EA8006F6465203D200025690064657461696C84
:100EB80073203D2000626175640053657269616C3E
:100EC8000055534253657269616C310074797065DD
:100ED80000706172616D00636D6400696400686E22
:100EE80064007374726D0066696C74006C766C00D3
:100EF80061646448616E646C65720072656D6F76DA
:100F08006548616E646C657200656E756D48616EEA
:100F1800646C657273004A534F4E53747265616D09
:100F28004C6F6748616E646C657200617070006E2A
:100F38006F6E6500747261636500696E666F007735
:100F480061726E006572726F720070616E69630023
:100F5800616C6C005A00252B3033643A25303275A9
:100F68000025592D256D2D25645425483A254D3ADF
:100F78002553257A0061736374696D65000000006C
:100F880000000000000000006F060A0861060A0859
:100F980063060A080000000000000000D9060A08DD
:100FA8001D070A08F7060A0819040A08F1060A08BC
:100FB800DB060A08E3060A0817070A08EB060A0808
:100FC800D5060A08000000000000000041080A08D1
:100FD80065080A0871080A0819040A084D080A0869
:100FE80059080A0853080A085F080A0843080A0843
:100FF80047080A08000000000000000015090A0858
:101008005F090A0837090A0817090A083F090A0880
:1010180047090A084F090A0857090A08000000008A
:10102800000000009B090A08000000000000000002
:1010380000000000000000000000000000000000A8
:101048000000000000000000000000000000000098
:101058000000000000000000000000000000000088
:101068000000000000000000000000000000000078
:101078000000000000000000000000000000000068
:1010880000000000000000004300000019010A08E9
:10109800D9030A08C5040A08D5040A080D050A0870
:1010A800A5090A08610A0A08A50A0A08210B0A08FC
:1010B800A50B0A08690C0A082D0D0A080000000093
:0810C800000000000000000020
:0410D000000000001C
:1010D400070000007D0F0A080000000030100A0815
:1010E40050100A0870100A080000000000000000F8
:1010F400000000000000000090100A08000000003A
:1011040000000000000000000000000000000000DB
:1011140000000000000000000000000000000000CB
:1011240000000000000000000000000000000000BB
:0C11340000000000000000000803002084
:10114000FFFFFFFF00000102030405060708090A6C
:101150000B0C0D0E0F101112131415161718191A67
:081160001B1C1D1E1F202800AE
:04116800785634126F
:04000005080A0018CD
:00000001FF
